{
  "address": "0x807bbE9449E754eF12aB3EF62473009F431E9ddC",
  "abi": [
    {
      "inputs": [
        {
          "internalType": "address",
          "name": "priceFeedAddress",
          "type": "address"
        }
      ],
      "stateMutability": "nonpayable",
      "type": "constructor"
    },
    {
      "inputs": [],
      "name": "FundMe__NotOwner",
      "type": "error"
    },
    {
      "inputs": [],
      "name": "FundMe__WithdrawalFailed",
      "type": "error"
    },
    {
      "stateMutability": "payable",
      "type": "fallback"
    },
    {
      "inputs": [],
      "name": "MINIMUM_USD",
      "outputs": [
        {
          "internalType": "uint256",
          "name": "",
          "type": "uint256"
        }
      ],
      "stateMutability": "view",
      "type": "function"
    },
    {
      "inputs": [],
      "name": "cheap_withdraw",
      "outputs": [],
      "stateMutability": "payable",
      "type": "function"
    },
    {
      "inputs": [],
      "name": "fund",
      "outputs": [],
      "stateMutability": "payable",
      "type": "function"
    },
    {
      "inputs": [
        {
          "internalType": "address",
          "name": "funderAddress",
          "type": "address"
        }
      ],
      "name": "getAddressToAmountFunded",
      "outputs": [
        {
          "internalType": "uint256",
          "name": "",
          "type": "uint256"
        }
      ],
      "stateMutability": "view",
      "type": "function"
    },
    {
      "inputs": [
        {
          "internalType": "uint256",
          "name": "index",
          "type": "uint256"
        }
      ],
      "name": "getFunder",
      "outputs": [
        {
          "internalType": "address",
          "name": "",
          "type": "address"
        }
      ],
      "stateMutability": "view",
      "type": "function"
    },
    {
      "inputs": [],
      "name": "getPriceFeed",
      "outputs": [
        {
          "internalType": "contract AggregatorV3Interface",
          "name": "",
          "type": "address"
        }
      ],
      "stateMutability": "view",
      "type": "function"
    },
    {
      "inputs": [],
      "name": "withdraw",
      "outputs": [],
      "stateMutability": "payable",
      "type": "function"
    },
    {
      "stateMutability": "payable",
      "type": "receive"
    }
  ],
  "transactionHash": "0xc768459ae827aa003868d5305c59a82ce9c1adb2e775517a5f89cdb05371c110",
  "args": [
    "0xD4a33860578De61DBAbDc8BFdb98FD742fA7028e"
  ],
  "numDeployments": 1,
  "solcInputHash": "efbd06e75889ef2038a0cfc4caaa167c",
  "bytecode": "0x60a06040523480156200001157600080fd5b506040516200135338038062001353833981810160405281019062000037919062000120565b80600260006101000a81548173ffffffffffffffffffffffffffffffffffffffff021916908373ffffffffffffffffffffffffffffffffffffffff1602179055503373ffffffffffffffffffffffffffffffffffffffff1660808173ffffffffffffffffffffffffffffffffffffffff1660601b815250505062000152565b600080fd5b600073ffffffffffffffffffffffffffffffffffffffff82169050919050565b6000620000e882620000bb565b9050919050565b620000fa81620000db565b81146200010657600080fd5b50565b6000815190506200011a81620000ef565b92915050565b600060208284031215620001395762000138620000b6565b5b6000620001498482850162000109565b91505092915050565b60805160601c6111cd62000186600039600081816102b9015281816104af01528181610574015261074601526111cd6000f3fe6080604052600436106100745760003560e01c80636b69a5921161004e5780636b69a592146100de5780639e87a5cd14610109578063b60d428814610134578063d7b4750c1461013e57610083565b80630343fb251461008d57806336f778f3146100ca5780633ccfd60b146100d457610083565b366100835761008161017b565b005b61008b61017b565b005b34801561009957600080fd5b506100b460048036038101906100af9190610b25565b61026f565b6040516100c19190610b6b565b60405180910390f35b6100d26102b7565b005b6100dc610572565b005b3480156100ea57600080fd5b506100f3610808565b6040516101009190610b6b565b60405180910390f35b34801561011557600080fd5b5061011e610814565b60405161012b9190610be5565b60405180910390f35b61013c61017b565b005b34801561014a57600080fd5b5061016560048036038101906101609190610c2c565b61083e565b6040516101729190610c68565b60405180910390f35b60006101b2600260009054906101000a900473ffffffffffffffffffffffffffffffffffffffff163461088690919063ffffffff16565b9050346000803373ffffffffffffffffffffffffffffffffffffffff1673ffffffffffffffffffffffffffffffffffffffff16815260200190815260200160002060008282546102029190610cb2565b925050819055506001339080600181540180825580915050600190039060005260206000200160009091909190916101000a81548173ffffffffffffffffffffffffffffffffffffffff021916908373ffffffffffffffffffffffffffffffffffffffff16021790555050565b60008060008373ffffffffffffffffffffffffffffffffffffffff1673ffffffffffffffffffffffffffffffffffffffff168152602001908152602001600020549050919050565b7f000000000000000000000000000000000000000000000000000000000000000073ffffffffffffffffffffffffffffffffffffffff163373ffffffffffffffffffffffffffffffffffffffff161461033c576040517f579610db00000000000000000000000000000000000000000000000000000000815260040160405180910390fd5b600060018054806020026020016040519081016040528092919081815260200182805480156103c057602002820191906000526020600020905b8160009054906101000a900473ffffffffffffffffffffffffffffffffffffffff1673ffffffffffffffffffffffffffffffffffffffff1681526020019060010190808311610376575b5050505050905060005b815181101561044a5760008282815181106103e8576103e7610d08565b5b6020026020010151905060008060008373ffffffffffffffffffffffffffffffffffffffff1673ffffffffffffffffffffffffffffffffffffffff1681526020019081526020016000208190555050808061044290610d37565b9150506103ca565b50600067ffffffffffffffff81111561046657610465610d80565b5b6040519080825280602002602001820160405280156104945781602001602082028036833780820191505090505b50600190805190602001906104aa929190610a1b565b5060007f000000000000000000000000000000000000000000000000000000000000000073ffffffffffffffffffffffffffffffffffffffff16476040516104f190610de0565b60006040518083038185875af1925050503d806000811461052e576040519150601f19603f3d011682016040523d82523d6000602084013e610533565b606091505b505090508061056e576040517f26faa65e00000000000000000000000000000000000000000000000000000000815260040160405180910390fd5b5050565b7f000000000000000000000000000000000000000000000000000000000000000073ffffffffffffffffffffffffffffffffffffffff163373ffffffffffffffffffffffffffffffffffffffff16146105f7576040517f579610db00000000000000000000000000000000000000000000000000000000815260040160405180910390fd5b6106366040518060400160405280601781526020017f7769746864726177696e672066756e6473206279202573000000000000000000815250336108b7565b60005b6001805490508110156106e15760006001828154811061065c5761065b610d08565b5b9060005260206000200160009054906101000a900473ffffffffffffffffffffffffffffffffffffffff16905060008060008373ffffffffffffffffffffffffffffffffffffffff1673ffffffffffffffffffffffffffffffffffffffff168152602001908152602001600020819055505080806106d990610d37565b915050610639565b50600067ffffffffffffffff8111156106fd576106fc610d80565b5b60405190808252806020026020018201604052801561072b5781602001602082028036833780820191505090505b5060019080519060200190610741929190610a1b565b5060007f000000000000000000000000000000000000000000000000000000000000000073ffffffffffffffffffffffffffffffffffffffff164760405161078890610de0565b60006040518083038185875af1925050503d80600081146107c5576040519150601f19603f3d011682016040523d82523d6000602084013e6107ca565b606091505b5050905080610805576040517f26faa65e00000000000000000000000000000000000000000000000000000000815260040160405180910390fd5b50565b674563918244f4000081565b6000600260009054906101000a900473ffffffffffffffffffffffffffffffffffffffff16905090565b60006001828154811061085457610853610d08565b5b9060005260206000200160009054906101000a900473ffffffffffffffffffffffffffffffffffffffff169050919050565b600067016345785d8a00008361089b84610953565b6108a59190610df5565b6108af9190610e7e565b905092915050565b61094f82826040516024016108cd929190610f48565b6040516020818303038152906040527f319af333000000000000000000000000000000000000000000000000000000007bffffffffffffffffffffffffffffffffffffffffffffffffffffffff19166020820180517bffffffffffffffffffffffffffffffffffffffffffffffffffffffff83818316178352505050506109f2565b5050565b6000808273ffffffffffffffffffffffffffffffffffffffff1663feaf968c6040518163ffffffff1660e01b815260040160a06040518083038186803b15801561099c57600080fd5b505afa1580156109b0573d6000803e3d6000fd5b505050506040513d601f19601f820116820180604052508101906109d49190611005565b5050509150506305f5e100816109ea9190611080565b915050919050565b60008151905060006a636f6e736f6c652e6c6f679050602083016000808483855afa5050505050565b828054828255906000526020600020908101928215610a94579160200282015b82811115610a935782518260006101000a81548173ffffffffffffffffffffffffffffffffffffffff021916908373ffffffffffffffffffffffffffffffffffffffff16021790555091602001919060010190610a3b565b5b509050610aa19190610aa5565b5090565b5b80821115610abe576000816000905550600101610aa6565b5090565b600080fd5b600073ffffffffffffffffffffffffffffffffffffffff82169050919050565b6000610af282610ac7565b9050919050565b610b0281610ae7565b8114610b0d57600080fd5b50565b600081359050610b1f81610af9565b92915050565b600060208284031215610b3b57610b3a610ac2565b5b6000610b4984828501610b10565b91505092915050565b6000819050919050565b610b6581610b52565b82525050565b6000602082019050610b806000830184610b5c565b92915050565b6000819050919050565b6000610bab610ba6610ba184610ac7565b610b86565b610ac7565b9050919050565b6000610bbd82610b90565b9050919050565b6000610bcf82610bb2565b9050919050565b610bdf81610bc4565b82525050565b6000602082019050610bfa6000830184610bd6565b92915050565b610c0981610b52565b8114610c1457600080fd5b50565b600081359050610c2681610c00565b92915050565b600060208284031215610c4257610c41610ac2565b5b6000610c5084828501610c17565b91505092915050565b610c6281610ae7565b82525050565b6000602082019050610c7d6000830184610c59565b92915050565b7f4e487b7100000000000000000000000000000000000000000000000000000000600052601160045260246000fd5b6000610cbd82610b52565b9150610cc883610b52565b9250827fffffffffffffffffffffffffffffffffffffffffffffffffffffffffffffffff03821115610cfd57610cfc610c83565b5b828201905092915050565b7f4e487b7100000000000000000000000000000000000000000000000000000000600052603260045260246000fd5b6000610d4282610b52565b91507fffffffffffffffffffffffffffffffffffffffffffffffffffffffffffffffff821415610d7557610d74610c83565b5b600182019050919050565b7f4e487b7100000000000000000000000000000000000000000000000000000000600052604160045260246000fd5b600081905092915050565b50565b6000610dca600083610daf565b9150610dd582610dba565b600082019050919050565b6000610deb82610dbd565b9150819050919050565b6000610e0082610b52565b9150610e0b83610b52565b9250817fffffffffffffffffffffffffffffffffffffffffffffffffffffffffffffffff0483118215151615610e4457610e43610c83565b5b828202905092915050565b7f4e487b7100000000000000000000000000000000000000000000000000000000600052601260045260246000fd5b6000610e8982610b52565b9150610e9483610b52565b925082610ea457610ea3610e4f565b5b828204905092915050565b600081519050919050565b600082825260208201905092915050565b60005b83811015610ee9578082015181840152602081019050610ece565b83811115610ef8576000848401525b50505050565b6000601f19601f8301169050919050565b6000610f1a82610eaf565b610f248185610eba565b9350610f34818560208601610ecb565b610f3d81610efe565b840191505092915050565b60006040820190508181036000830152610f628185610f0f565b9050610f716020830184610c59565b9392505050565b600069ffffffffffffffffffff82169050919050565b610f9781610f78565b8114610fa257600080fd5b50565b600081519050610fb481610f8e565b92915050565b6000819050919050565b610fcd81610fba565b8114610fd857600080fd5b50565b600081519050610fea81610fc4565b92915050565b600081519050610fff81610c00565b92915050565b600080600080600060a0868803121561102157611020610ac2565b5b600061102f88828901610fa5565b955050602061104088828901610fdb565b945050604061105188828901610ff0565b935050606061106288828901610ff0565b925050608061107388828901610fa5565b9150509295509295909350565b600061108b82610fba565b915061109683610fba565b9250827f7fffffffffffffffffffffffffffffffffffffffffffffffffffffffffffffff04821160008413600084131616156110d5576110d4610c83565b5b817f8000000000000000000000000000000000000000000000000000000000000000058312600084126000841316161561111257611111610c83565b5b827f8000000000000000000000000000000000000000000000000000000000000000058212600084136000841216161561114f5761114e610c83565b5b827f7fffffffffffffffffffffffffffffffffffffffffffffffffffffffffffffff058212600084126000841216161561118c5761118b610c83565b5b82820290509291505056fea26469706673582212202a587bf2b8b3a413625c4f7e4e599b0d48d0edff1431e933ef5d84486b73115964736f6c63430008080033",
  "devdoc": {
    "author": "Illia Kurochkin",
    "kind": "dev",
    "methods": {},
    "title": "A contract for crowd funding",
    "version": 1
  },
  "userdoc": {
    "kind": "user",
    "methods": {
      "fund()": {
        "notice": "This function funds this contract"
      },
      "withdraw()": {
        "notice": "This function withdraws the funds. It can be called only by the creator"
      }
    },
    "notice": "This is a funeme contract",
    "version": 1
  },
  "storageLayout": {
    "storage": [
      {
        "astId": 331,
        "contract": "contracts/FundMe.sol:FundMe",
        "label": "s_addressToAmountFunded",
        "offset": 0,
        "slot": "0",
        "type": "t_mapping(t_address,t_uint256)"
      },
      {
        "astId": 334,
        "contract": "contracts/FundMe.sol:FundMe",
        "label": "s_funders",
        "offset": 0,
        "slot": "1",
        "type": "t_array(t_address)dyn_storage"
      },
      {
        "astId": 346,
        "contract": "contracts/FundMe.sol:FundMe",
        "label": "s_priceFeed",
        "offset": 0,
        "slot": "2",
        "type": "t_contract(AggregatorV3Interface)102"
      }
    ],
    "types": {
      "t_address": {
        "encoding": "inplace",
        "label": "address",
        "numberOfBytes": "20"
      },
      "t_array(t_address)dyn_storage": {
        "base": "t_address",
        "encoding": "dynamic_array",
        "label": "address[]",
        "numberOfBytes": "32"
      },
      "t_contract(AggregatorV3Interface)102": {
        "encoding": "inplace",
        "label": "contract AggregatorV3Interface",
        "numberOfBytes": "20"
      },
      "t_mapping(t_address,t_uint256)": {
        "encoding": "mapping",
        "key": "t_address",
        "label": "mapping(address => uint256)",
        "numberOfBytes": "32",
        "value": "t_uint256"
      },
      "t_uint256": {
        "encoding": "inplace",
        "label": "uint256",
        "numberOfBytes": "32"
      }
    }
  }
}